{
    "txid": "dbb62fabff4f89ccceb252ab491d02482e106ddfc13205721c24945a7b89ba0d",
    "hash": "dbb62fabff4f89ccceb252ab491d02482e106ddfc13205721c24945a7b89ba0d",
    "version": 1,
    "size": 190,
    "vsize": 190,
    "locktime": 0,
    "vin": [
        {
            "txid": "4d49a71ec9da436f71ec4ee231d04f292a29cd316f598bb7068feccabdc59485",
            "vout": 0,
            "scriptSig": {
                "asm": "3045022100c45e2d3564ea6069aa665285ecc998cbc8628dcdca71b86d9f02cd853a3242ee02202f475270b5b487c9fd478c4f4719e364d4a922e06cd1cfbf8d168c47e010d81f[ALL] 03e45d905c7406ac861b90e6f2c7cf4f3736f63d480abdeaaf482e355a8960b4f7",
                "hex": "483045022100c45e2d3564ea6069aa665285ecc998cbc8628dcdca71b86d9f02cd853a3242ee02202f475270b5b487c9fd478c4f4719e364d4a922e06cd1cfbf8d168c47e010d81f012103e45d905c7406ac861b90e6f2c7cf4f3736f63d480abdeaaf482e355a8960b4f7"
            },
            "sequence": 4294967295
        }
    ],
    "vout": [
        {
            "value": 0.00100000,
            "n": 0,
            "scriptPubKey": {
                "asm": "OP_HASH160 03e4b9c2caa0888bd3ccce40a044c9ee4304ba15 OP_EQUAL",
                "hex": "a91403e4b9c2caa0888bd3ccce40a044c9ee4304ba1587",
                "reqSigs": 1,
                "type": "scripthash",
                "addresses": [
                    "TSs1MPyrBHf1BecmLagtEbibg7g7ysHdqNgJ"
                ]
            }
        }
    ],
    "hex": "01000000018594c5bdcaec8f06b78b596f31cd292a294fd031e24eec716f43dac91ea7494d000000006b483045022100c45e2d3564ea6069aa665285ecc998cbc8628dcdca71b86d9f02cd853a3242ee02202f475270b5b487c9fd478c4f4719e364d4a922e06cd1cfbf8d168c47e010d81f012103e45d905c7406ac861b90e6f2c7cf4f3736f63d480abdeaaf482e355a8960b4f7ffffffff01a08601000000000017a91403e4b9c2caa0888bd3ccce40a044c9ee4304ba158700000000"
}
