{
    "txid": "8d499dbe331e06eab3bb781af332f1abdf22f05aa52b7fac2b3124a8b67c5c7c",
    "hash": "8d499dbe331e06eab3bb781af332f1abdf22f05aa52b7fac2b3124a8b67c5c7c",
    "version": 2,
    "size": 197,
    "vsize": 197,
    "locktime": 0,
    "vin": [
        {
            "txid": "5897de6bd6027a475eadd57019d4e6872c396d0716c4875a5f1a6fcfdf385c1f",
            "vout": 0,
            "scriptSig": {
                "asm": "",
                "hex": ""
            },
            "sequence": 4294967295
        },
        {
            "txid": "bf829c6bcf84579331337659d31f89dfd138f7f7785802d5501c92333145ca7c",
            "vout": 18,
            "scriptSig": {
                "asm": "",
                "hex": ""
            },
            "sequence": 4294967295
        },
        {
            "txid": "22a6f904655d53ae2ff70e701a0bbd90aa3975c0f40bfc6cc996a9049e31cdfc",
            "vout": 1,
            "scriptSig": {
                "asm": "",
                "hex": ""
            },
            "sequence": 4294967295
        }
    ],
    "vout": [
        {
            "value": 0.18000000,
            "n": 0,
            "scriptPubKey": {
                "asm": "OP_HASH160 02ee5ccb8732b5b41c5547f820024f3e6b135279 OP_EQUAL",
                "hex": "a91402ee5ccb8732b5b41c5547f820024f3e6b13527987",
                "reqSigs": 1,
                "type": "scripthash",
                "addresses": [
                    "TSs1GJrEhq4HhD4aciMhnJQ6zy1GTG2RjhYn"
                ]
            }
        },
        {
            "value": 4.00000000,
            "n": 1,
            "scriptPubKey": {
                "asm": "OP_HASH160 03e4b9c2caa0888bd3ccce40a044c9ee4304ba15 OP_EQUAL",
                "hex": "a91403e4b9c2caa0888bd3ccce40a044c9ee4304ba1587",
                "reqSigs": 1,
                "type": "scripthash",
                "addresses": [
                    "TSs1MPyrBHf1BecmLagtEbibg7g7ysHdqNgJ"
                ]
            }
        }
    ],
    "hex": "02000000031f5c38dfcf6f1a5f5a87c416076d392c87e6d41970d5ad5e477a02d66bde97580000000000ffffffff7cca453133921c50d5025878f7f738d1df891fd359763331935784cf6b9c82bf1200000000fffffffffccd319e04a996c96cfc0bf4c07539aa90bd0b1a700ef72fae535d6504f9a6220100000000ffffffff0280a812010000000017a91402ee5ccb8732b5b41c5547f820024f3e6b135279870084d7170000000017a91403e4b9c2caa0888bd3ccce40a044c9ee4304ba158700000000"
}
