{
    "txid": "18bc0a3842b0ad64b848e8d24ea4934fc2d52c1d3dffb12ba045d520cecc8ef6",
    "hash": "18bc0a3842b0ad64b848e8d24ea4934fc2d52c1d3dffb12ba045d520cecc8ef6",
    "version": 2,
    "size": 85,
    "vsize": 85,
    "locktime": 0,
    "vin": [
        {
            "txid": "5897de6bd6027a475eadd57019d4e6872c396d0716c4875a5f1a6fcfdf385c1f",
            "vout": 0,
            "scriptSig": {
                "asm": "",
                "hex": ""
            },
            "sequence": 4294967293
        }
    ],
    "vout": [
        {
            "value": 0.18000000,
            "n": 0,
            "scriptPubKey": {
                "asm": "OP_DUP OP_HASH160 198bb82d24a10a844be73b673102989629590397 OP_EQUALVERIFY OP_CHECKSIG",
                "hex": "76a914198bb82d24a10a844be73b67310298962959039788ac",
                "reqSigs": 1,
                "type": "pubkeyhash",
                "addresses": [
                    "TSa98YsFSerZQdTNGqExZu273MVxprNwZUsw"
                ]
            }
        }
    ],
    "hex": "02000000011f5c38dfcf6f1a5f5a87c416076d392c87e6d41970d5ad5e477a02d66bde97580000000000fdffffff0180a81201000000001976a914198bb82d24a10a844be73b67310298962959039788ac00000000"
}
